:020000040800F2
:10000000200C002001010008A1360008773000080C
:1000100029360008C5090008BD420008000000009C
:10002000000000000000000000000000293A000865
:10003000E10A0008000000007F390008153C0008B4
:100040001B0100081B0100081B0100081B01000820
:100050001B0100081B0100081B0100081B01000810
:100060001B0100081B010008EB0A00081B01000827
:100070001B0100081B0100081B0100081B010008F0
:100080001B0100081B010008ED0800081B01000807
:100090001B0100081B0100081B0100081B010008D0
:1000A0001B010008F13C00081B0100081B010008AF
:1000B000FD3C0008093D0008153D00081B01000833
:1000C0001B0100081B0100081B0100081B010008A0
:1000D0001B010008814200088D420008B14200085F
:1000E000E30A00081B0100081B010008DFF80CD020
:1000F00000F0EAFB0048004719460008200C0020E9
:100100000648804706480047FEE7FEE7FEE7FEE7B1
:10011000FEE7FEE7FEE7FEE7FEE7FEE7EF3C00084E
:10012000ED000008202A04DB203A21FA02F0002129
:10013000704721FA02F3D040C2F1200291400843F7
:100140001946704740EA01039B0703D009E008C93C
:10015000121F08C0042AFAD203E011F8013B00F88C
:10016000013B521EF9D27047D2B201E000F8012BD8
:10017000491EFBD270470022F6E710B513460A4627
:1001800004461946FFF7F0FF204610BDF0B480EAA0
:100190000102D40F4200B2EB410F02D202460846E0
:1001A00011464A0042D0C30DDDB2C1F3C752AD1AA9
:1001B000202D35DAC1F3160141F4000204B1524298
:1001C000C5F1200602FA06F12A411044B3EBD05FD4
:1001D00023D0C4B1012DA0EBC35009DCF0BC4FF01B
:1001E000004202EAC352DBB200F5000000F0E0BAC0
:1001F000400000F1807000EBC350A0F1807040EA35
:10020000D170490009E0490841EAC071A0EBC35030
:1002100000F50000400800EBC350F0BC00F0BFBA8E
:100220006142012202EB4101001BF6E7F0BC70477E
:1002300081F00041AAE780F00040A7E780EA0102D0
:1002400010B502F00043400022D04A001FD0010E3A
:1002500001EB1261C0F35600C2F3560240F40000F5
:1002600042F40002A0FB022000047F39140400D0F5
:10027000401C50EA124001D44000491EC2B20C0694
:1002800004EBD010401C4008802A02D003E000207C
:1002900010BD20F00100002900DA0020184310BD35
:1002A00030B480EA010202F0004530F0004221F053
:1002B000004013D090B1C30DD40DC2F31601C0F3AA
:1002C0001600E41A41F4000140F400027D3491422A
:1002D00001D3641C00E04900002C02DA30BC00208D
:1002E00070474FF400000023914201D3891A034361
:1002F00040084FEA4101F7D151B1914202D14FF08C
:10030000004105E002D24FF0010101E06FF0010170
:1003100003EBC450284430BC00F041BA420005D081
:10032000C0F3C7525242914201DC0020704700EBFB
:10033000C15070472DE9FE4F804681EA0300C00F8F
:100340000C46009021F0004123F00045B8EB02007C
:10035000A94105D24046214690461C460B4602461E
:1003600023F00040104347D0270DC7F30A00C3F322
:100370000A510290401A019040286BDAC3F313002F
:1003800040F4801B0098924620B10023D2EB030A70
:1003900063EB0B0B01985946C0F14002504600F048
:1003A000DDF906460D4650465946019A00F0E5F93A
:1003B00010EB08006141002487EA115284EAE773D8
:1003C0001A4340D0009A62B3019A012A4FEA0752B9
:1003D00015DC001B61EB02014FF0004202EA0752FC
:1003E000CDE90042001C41F5801132462B4600F059
:1003F0001CFA03B0BDE8F08F40462146F9E7001B28
:1004000061EB0201001C41F5801300185B412018CC
:10041000A2F5001747EB030140EAD570B6196D410C
:1004200011E06D084FEA360645EAC0754FEA0752FB
:10043000001B61EB0201001C41F5801149084FEAE5
:1004400030000019514132462B4603B0BDE8F04F51
:1004500000F0DCB90098012240000023D0EB02023A
:1004600063EBE073009821464FEAE074B8EB0000BC
:1004700061EB0401E9E783F000435BE781F00041B1
:1004800058E72DE9FE4F81EA030404F0004421F00F
:10049000004100944FF0000B23F0004350EA0104A8
:1004A0005ED052EA03045BD0C3F30A54C1F30A5589
:1004B0002C44A4F2F3340194A0FB0254C1F31301C1
:1004C00041F48011C3F3130343F4801301FB02448E
:1004D00000FB034E840A970A44EA815447EA835793
:1004E000A4FB076802958D0A05FB07854FEA932C4C
:1004F00004FB0C542705029D4FEA065847EA1637BD
:10050000B5EB08056EEB070C870E920E47EA8117D4
:1005100042EA8312A7FB0201B6EB0B0164EB000475
:100520002B0D43EA0C335E1844EB1C50DA4651465F
:10053000E7FB0201C5F313044FEA0B3343EA1453FC
:100540004FEA0432019C43EA0603A4F10C0402942E
:10055000009CCDE900B400F068F903B0BDE8F08F6D
:1005600000200146F9E72DE9F04D81EA030404F08B
:10057000004B21F0004514464FF0000A23F00041E3
:1005800050EA050220D054EA01021DD0C5F30A57F3
:100590000246C5F31303C1F31300C1F30A5640F436
:1005A000801543F48013A7EB0608101BD64608F20B
:1005B000FD3873EB050002D308F1010801E0921841
:1005C0005B41B8F1000F03DA00200146BDE8F08D71
:1005D00000204FF48011064684460EE0171B73EB93
:1005E000050705D3121B63EB050306434CEA010C18
:1005F00049084FEA300092185B4150EA0107EDD1FB
:1006000052EA030012D082EA040083EA050108439B
:1006100005D0101BAB4106D20122002306E00022C8
:100620004FF0004302E06FF0010253101AEB060096
:100630004CEB085110EB0A0041EB0B01BDE8F04D0B
:1006400000F0E4B8C10F80EAE0700844CA079623BE
:10065000002100F0ADB80EB5C10F80EAE07008448B
:10066000CA07002140F233438DE80E000A460B46CC
:1006700000F0DBF803B000BD00F0004220F00040C5
:10068000C10DC0F3160040F400007F2901DA0020FC
:100690007047962903DCC1F19601C84001E0963904
:1006A0008840002AF4D04042704700F0004230F009
:1006B00000400AD0C10D01F56071C0F3160042EA96
:1006C0000151C2084007114370470020014670479E
:1006D00001F0004330B421F0004150EA010206D09D
:1006E0000A0DA2F56072C1F31301002A02DC30BCCE
:1006F00000207047440F44EAC104C100E01830BC38
:1007000000EBC25000F04BB8002801DBC0F1004004
:10071000002901DBC1F1004181427047002801DB63
:10072000C0F10040002901DBC1F10041884270475F
:1007300030B50B46014600202022012409E021FAB1
:1007400002F59D4205D303FA02F5491B04FA02F5AE
:100750002844151EA2F10102F1DC30BD202A04DB81
:10076000203A00FA02F1002070479140C2F12003C4
:1007700020FA03F3194390407047202A06DBCB1779
:10078000203A41FA02F043EAE07306E041FA02F34C
:10079000D040C2F120029140084319467047002919
:1007A000A8BF7047401C490008BF20F001007047F7
:1007B00010B4B0FA80FC00FA0CF050EA010404BF57
:1007C00010BC704749B1CCF1200421FA04F411FAAD
:1007D0000CF118BF012121430843A3EB0C01CB1DF1
:1007E0004FEA00614FEA102042BF002010BC704762
:1007F00000EBC35010440029A4BF10BC7047401C3C
:10080000490008BF20F0010010BC704710B5141E4D
:1008100073F1000408DA401C41F1000192185B41B9
:100820001A4301D120F0010010BD2DE9F04D924690
:100830009B4611B1B1FA81F202E0B0FA80F22032A7
:100840009046FFF78BFF04460F4640EA0A0041EA54
:100850000B0153465A46084313D0114653EA010090
:1008600019D0C8F140025046FFF75CFC05460E4621
:10087000504659464246FFF771FF084305D0012014
:1008800004E020463946BDE8F08D0020054346EAE5
:10089000E0762C4337430A986305E40AA0EB08008E
:1008A0000022FD0A44EA47540A3002D500200146DE
:1008B000E9E7010510196941DDE9084500196941B9
:1008C000BDE8F04DA2E70000064C074D06E0E068E9
:1008D00040F0010394E8070098471034AC42F6D387
:1008E000FFF708FC6459000884590008014800F02B
:1008F00011BB0000E800002070B504460068816864
:10090000C943C90716D1816821F00101816000F057
:10091000DBFE054609E000F0D7FE401B022804D9A3
:1009200020688068C043C00706D020688068C04344
:10093000C007F0D0002070BDA06A40F01000A06297
:10094000E06A40F00100E062012070BDF8B50026C9
:100950000446009600688168C943C9072CD08168A5
:1009600041F001018160154815490068B0FBF1F0C4
:1009700000E0401E00900028FBD100F0A5FE0546D7
:1009800015E000F0A1FE401B022810D92068806805
:10099000C043C0070BD0A06A40F01000A062E06A1C
:1009A00040F00100E06284F824600120F8BD206876
:1009B0008068C043C007E4D10020F8BD28000020B3
:1009C00040420F00FEE7000010B5124C607870B195
:1009D0001149012809780CD0022813D0032810D11E
:1009E00001290ED1BDE81040982000F049B802203E
:1009F0000DE0012905D11E2000F042F86078401C6E
:100A0000607010BD054800780128FAD1002003F07D
:100A100059F8F3E780000020350000203600002060
:100A200010B5134C207880B11249012809780ED0F6
:100A3000022815D0032807D1012905D11E2000F076
:100A40001FF80D490020087010BD02200DE001299B
:100A5000FAD1C42000F014F82078401C207010BD9A
:100A6000064800887828FAD1012003F02BF8F3E734
:100A700080000020350000209D000020180000208C
:100A800070B5114C0646012060700025A5712571D6
:100A9000657165623046A562FFF7D4FDE0623046BD
:100AA000FFF7D9FD094A0A4BFFF75DFD0022094B0C
:100AB000FFF759FDFFF70CFE206104F075F90648B9
:100AC00005600648056070BD30000020A7E8482E8C
:100AD000FF21094000001A40740000207800002027
:100AE00070474FF4805000F0EBBC102000F0E8BCE1
:100AF00070B5054616460846FFF7A4FD0446314684
:100B00002846FFF79BFB2146FFF798FBBDE87040A6
:100B10000221FFF703BC2DE9F04106464FF47A703D
:100B200090FBF3F017460D46FFF78CFD0446284670
:100B3000FFF788FD05463846FFF784FD3146FFF78D
:100B40007DFB2946FFF77AFB0221FFF7E7FB2146F1
:100B5000BDE8F041FFF7A4BB72B6FEE730B50B4825
:100B60000368586A0B4C00B2414209480160226890
:100B7000526A002512B242605D6223685D6283683A
:100B800019448160C1681144C16030BDF00100208A
:100B90006C0000206001002010B5094800F0A0FBA7
:100BA0006421074800F0FEFA054800F0AEF9800520
:100BB00004D5034800F0ABF980B210BD002010BD91
:100BC000E800002030B55849002301240A8957481D
:100BD000B2F5FA6F01D2037000E00470CA8840F6E3
:100BE0005435AA4201D2437000E044708A8840F232
:100BF000A465AA4201D2837000E084704A88B2F5ED
:100C0000166F01D2C37000E0C470098840F26C72A4
:100C1000914201D2037100E004714449027808391D
:100C2000012A03D04AB305D05AB373E04578012DA9
:100C300004D06DB14378012B41D06BE085788DBB3A
:100C4000C578012D41D10579012D63D14B6049E073
:100C5000837813B1012B08D05CE0C378012B59D104
:100C60000379012B56D1052327E0C378012B51D1FD
:100C70000379012B4ED109231FE0457825B1012DC1
:100C800011D045781DB145E08578012D02D08578D9
:100C900085B33FE0C378012B3CD10379012B39D1D7
:100CA0000D230AE00DE08378012B33D1C378012BAB
:100CB00030D10379012B2DD111234B602AE08378A9
:100CC0001BB18378012B10D024E0C37813B1012B22
:100CD00005D01FE00379012B1CD1DB1FEDE7037961
:100CE000012B17D16FF00803E7E7C3781BB1012B85
:100CF00006D00FE009E0037963B96FF00C03DCE77D
:100D000003793BB96FF01003D7E7C57815B90579BA
:100D1000002DD2D04B78012B05D1002A03D10079C8
:100D2000002800D10C7030BDDE000020A40000209F
:100D3000F8B500260446009690F82400012808D053
:100D4000012084F824002046FFF7D6FD070002D0DA
:100D500053E00220F8BDA06A20F4885040F0020061
:100D6000A062022000F060FD26490968B1FBF0F0A6
:100D7000400000E0401E00900028FBD12046FFF715
:100D8000E5FD2068816841F00801816000F09CFC6D
:100D9000054608E000F098FC401B0A2803D92068AB
:100DA0008068000715D4206880680007F2D42068A6
:100DB000816841F00401816000F086FC054612E084
:100DC00000F082FC401B0A280DD92068806840078B
:100DD00009D5A06A20F0020040F01000A06284F85B
:100DE00024600120F8BD206880684007E8D4A06A2C
:100DF00020F0020040F00100A06284F82460384630
:100E0000F8BD00002800002070470000F8B500235E
:100E1000009390F824201C46012A12D0012280F869
:100E200024204A681F26072A0DD205686F6B521EC0
:100E300002EB82029640B7430E68964037436F63D9
:100E400019E00220F8BD05680D2A0AD22F6BD21FC7
:100E500002EB82029640B7430E68964037432F63F9
:100E600009E0EF6A0D3A02EB82029640B7430E6842
:100E700096403743EF620A68072605680A2A0AD3B4
:100E8000EF680A3A02EB42029640B7438E689640FA
:100E90003743EF6008E02F6902EB42029640B74308
:100EA0008E68964037432F610A68102A01D0112AB4
:100EB00020D1124D0268AA4217D195682D0219D48B
:100EC000956845F4000595600968102912D10C4910
:100ED0000C4A0968B1FBF2F101EB8101490000E025
:100EE000491E00910029FBD104E0816A41F02001F4
:100EF0008162012380F824401846F8BD0024014097
:100F00002800002040420F007047806A7047006848
:100F1000C06C704710B5044600684168890626D544
:100F20000168890723D5A16AC90603D4A16A41F4DF
:100F30000071A1628168C1F34241072910D1217B70
:100F400071B9416821F020014160A06A20F48070ED
:100F5000A062A06AC00403D4A06A40F00100A062AD
:100F60002046FFF7D1FF21686FF01200086020686B
:100F7000416809062ED5016849072BD5A16AC90623
:100F800003D4A16A41F40051A1628168C1F3023126
:100F9000072909D04168490515D48168C1F3424148
:100FA000072910D1217B71B9416821F0800141608E
:100FB000A06A20F48050A062A06AC00503D4A06A91
:100FC00040F00100A0622046FFF71EFF21686FF08D
:100FD0000C0008602068416849060DD50068C0070C
:100FE0000AD0A06A40F48030A062204600F094F855
:100FF00021686FF00100086010BD00002DE9F0418C
:101000004FF00006040035467DD0A06A002728B9BD
:10101000E76284F82470204600F080F82046FFF74D
:101020006BFCA16AC90600D420B1A06A40F0100090
:10103000A06268E0A16A21F4885141F00201A16236
:101040006268E169237B0A4346EA43010A43A168D7
:101050004FF48076B14208D0012906D0002194F8DF
:1010600014C0BCF1010F02D00AE03146F7E7F3B13A
:10107000A36A43F02003A362E36A43F00103E3623F
:101080002368D3F804C02CF4694C4CEA010CC3F873
:1010900004C021688B68DFF874C003EA0C031343B3
:1010A0008B60A168B1420BD0012909D00CE0DFF8B8
:1010B00060C0A3690CEB43330B4343F40061DFE7EB
:1010C000218A0D05A5F580152168CB6A23F47003EC
:1010D0002B43CB62216889680E4B1940914208D19D
:1010E000E762A16A21F0020141F00101A162BDE8BD
:1010F000F081A06A20F0020040F01000A062E06AD7
:1011000040F00100E0620120F1E70000FDF7E1FF9F
:1011100000E0FFFFFE0E1FFF7047000010B586B015
:1011200000210091019102910391006819498842C0
:101130002ED11948816941F400718161816901F4FE
:1011400000710491816941F004018161816901F0BC
:1011500004010491816941F00801816180690324DF
:1011600000F008000490E020CDE9000469460B4837
:1011700000F0B2F9009469460948019400F0ACF916
:1011800000221146122000F00BFB122000F0FAFAA8
:1011900006B010BD002401400010024000080140CC
:1011A000000C01402DE9F8434FF000080D460446BD
:1011B000CDF8008000F088FA074620688168C905EC
:1011C00008D5A06A40F02000A06284F824800120A5
:1011D000BDE8F8834168C90503D4C06A10F4700FF4
:1011E00029D0022000F020FB3A490968B1FBF0F653
:1011F00020680169384A11424FEA62024FEAA2139D
:101200001ED1C1684FEA621C11EA0C0F18D10169A6
:10121000114224D1C068184221D1142022E0681C58
:1012200009D025B100F050FAC01BA84203D92068AC
:101230000068800724D5206800688007EFD52CE07F
:101240000169114202D1C168194206D002692349DD
:101250000A4206D1C068084203D1542002E0292086
:1012600000E0FC204643009815E0681C10D025B132
:1012700000F02AFAC01BA8420AD90098B04207D24F
:10128000A06A40F00400A06284F8248003209FE755
:101290000098401C0090B042E7D321686FF0120024
:1012A0000860A06A40F40070A06220688068C0F303
:1012B000424007280CD1207B50B9A06A20F48070EE
:1012C000A062A06AC00403D4A06A40F00100A0623A
:1012D00000207DE728000020244992244992240020
:1012E00070B5044690F8240001280DD0012084F840
:1012F00024002046FFF72AFB01004FF0000205D032
:1013000084F82420084670BD022070BDA06A40F217
:101310000123984340F48070A0621F4D20681F4B4A
:10132000A84218D11E6816F4702F14D0A66A46F48D
:101330008016A6621E68760505D5A66A26F40056B4
:1013400046F48056A662A66AF6040AD5E66A26F036
:101350000606E66206E0A66A26F48016A6624668DD
:10136000E9E7E26284F824206FF00202026020685C
:101370008268C2F34242072A05D1A84208D11A68FE
:1013800012F4702F04D0826842F480128260B9E7B0
:10139000826842F4A002F9E70028014004240140D9
:1013A00010B590F821100022022905D00421816394
:1013B00080F82020012010BD01680B6823F00E0387
:1013C0000B6001680B6823F001030B6090F840305C
:1013D000012404FA03F1C36B596080F8214080F8BE
:1013E0002020104610BD000010B590F821100024F8
:1013F000022903D00421816301243DE001680A68C9
:1014000022F00E020A6001680A6822F001020A60F6
:101410001A4A0168914201D1012121E0174A143290
:10142000914201D110211BE0144A2832914201D18E
:10143000891515E0114A3C32914201D189140FE01F
:101440000E4A5032914202D14FF4803108E00B4AEB
:101450006432914202D14FF4801101E04FF080716B
:10146000064A083A5160012180F82110002180F8D5
:101470002010416B01B18847204610BD0800024092
:1014800070B5044600F020F90546601C02D00448FF
:101490000078044400F018F9401BA042FAD370BD54
:1014A0001C000020054A4FF40051102802D0B0F56E
:1014B000805F02D1104600F0FAB87047001001407A
:1014C000044910B50A68024202D00860FFF7EAFF3B
:1014D00010BD0000140401402DE9F84FDFF8A4917D
:1014E000002409F1040A0AF1040B23464FF00F0807
:1014F0000BF1040EBEE00127A7403A40BA4272D178
:10150000DFF884C14D68A5EB0C0665452BD00DDCDA
:10151000032D34D005DC35B3012D19D0022D2FD188
:101520001BE0112D16D0122D2AD119E0B6F5881F17
:1015300019D006DCB6F5803F15D0B6F5801F1FD157
:1015400011E0B6F5001F0ED0B6F5041F18D10AE061
:10155000CB6815E0CB681B1D12E0CB6808330FE0A9
:10156000CB680C330CE08B682BB1012B4FF00803D8
:1015700003D0476104E0042302E0076100E0002398
:10158000FF2A01D8064601E000F104064FEA84056F
:1015900001D9A5F12005376808FA05FC27EA0C07F0
:1015A00003FA05F547EA050737604D68ED0060D599
:1015B000364DAE6946F00106AE61AD6924F0030612
:1015C00005F001050095324D7719BE68A5072D0F6E
:1015D00008FA05FC26EA0C06DFF8B8C0604503D11E
:1015E0004FF0000C17E044E0DFF8ACC0604502D1DA
:1015F0004FF0010C0FE0DFF8A4C0604502D14FF0BE
:10160000020C08E0DFF898C0604502D14FF0030CEF
:1016100001E04FF0040C0CFA05FC4CEA060CC7F88C
:1016200008C04D68D9F80060ED034D4601D516435A
:1016300000E096432E604D68DAF80060AD03554631
:1016400001D5164300E096432E604D68DBF800603C
:10165000ED025D4601D5164300E096432E604D68CD
:10166000DEF80060AD02754601D5164300E09643F2
:101670002E60641C0A6832FA04F57FF43CAFBDE8C2
:10168000F88F00000004014000001110001002401B
:101690000000014000080140000C01400010014022
:1016A000001401408068084000D001207047C268E3
:1016B00021EA02030A4043EA0241016170470AB18C
:1016C000016170470904FBE701488068704700002A
:1016D0001C00002002488168027811448160704734
:1016E0001C000020074810B5016841F0100101609E
:1016F000032000F075F80F2000F006F800F024F841
:10170000002010BD0020024070B50D4D04464FF47E
:101710007A712878B1FBF0F00A490968B1FBF0F062
:1017200000F0D6FB48B9102C07D200222146501EEB
:1017300000F036F800206C6070BD012070BD000024
:101740001C000020280000200C4808B5816941F0E9
:1017500001018161816901F001010091C16941F0DC
:101760008051C161C069064900F08050009048680E
:1017700020F0E06040F00070486008BD00100240BA
:1017800000000140002809DB00F01F020121914008
:101790004009800000F1E020C0F80011704700000F
:1017A000F0B40E4B1B68C3F30223C3F10704042CEF
:1017B00000D904241D1D072D01D2002300E0DB1EEB
:1017C000012606FA04F56D1E0D409D409E40761ED2
:1017D000164045EA0601F0BC02F034BE0CED00E014
:1017E000064A00F0070110684FF6FF03184040EA70
:1017F0000120034908431060704700000CED00E031
:101800000000FA05BFF34F8F05480168054A01F44F
:10181000E06111430160BFF34F8F00BFFDE700009F
:101820000CED00E00400FA0510B5014627A086B0D3
:101830001DC88DE81D0029A0294C006804900020D7
:10184000012922D0022939D010291CD161682268CF
:10185000D20118D5C1F38342C9031DF8020009D58E
:10186000616804AAC1F34041515C1E4AB2FBF1F128
:10187000484301E01C4948436168490203D44000E1
:101880000321B0FBF1F006B010BD216AC1F30122C3
:10189000012A03D1890701D5D003F4E7022A05D133
:1018A000616A890702D549F64040ECE7032AEAD18C
:1018B00021688903E7D54FF22440E4E700F036F9C8
:1018C0006168C1F38131491C4900DAE7020304056C
:1018D000060708090A0B0C0D0E0F1010010200007C
:1018E0000010024000127A0000093D002DE9F84383
:1018F00004460078344FC00752D0F8690025C00074
:1019000008D4F86940F08050F861F869012500F0CA
:10191000805000902D480168C90511D401688046A7
:1019200041F480710160FFF7CFFE064604E0FFF747
:10193000CBFE801B642822D8D8F80000C005F6D55D
:10194000386A10F4407020D0A18801F440718142BF
:101950001BD0386A1E49012220F440700A60002220
:101960000A603862C00710D0FFF7AEFE064641F2AB
:10197000883807E0FFF7A8FE811B414502D9032004
:10198000BDE8F883386A8007F4D5386A616820F4C6
:101990004070084338621DB1F86920F08050F8614A
:1019A0002078800705D57868A16820F44040084376
:1019B00078602078C00605D57868E16820F480005A
:1019C000084378600020DBE7001002400070004010
:1019D000400442422DE9F0470D46040067D0DFF88D
:1019E0001881D8F8000000F00700A8420CD2D8F8FF
:1019F000001021F007012943C8F80010D8F80000B2
:101A000000F00700A84252D120683C4E810712D551
:101A1000400703D5706840F4E060706020780007EC
:101A200003D5706840F4605070607068A16820F061
:101A3000F000084370602078C00727D06068012854
:101A400010D03168022810D0890700292FDA716878
:101A500021F0030101437160FFF736FE074641F2B2
:101A600088390CE031688903EFE78901EDE7FFF77A
:101A70002BFEC11B494502D90320BDE8F0877068E1
:101A8000616800F00C00B0EB810FF0D1D8F80010C5
:101A9000404601F00701A9420BD9016821F0070176
:101AA00029430160006800F00700A84201D001202E
:101AB000E3E72078400705D57068E16820F4E0602E
:101AC000084370602078000706D57068216920F40B
:101AD000605040EAC100706000F038F87168084A50
:101AE000C1F30311515CC84006490860064800680C
:101AF000FFF70AFE0020C0E700200240001002406D
:101B00003451000828000020200000200448054926
:101B100000684968044AC1F30221515CC84070471B
:101B200028000020001002404451000804480549E4
:101B300000684968044AC1F3C221515CC84070473B
:101B400028000020001002404451000812A085B077
:101B50000FC88DE80F0014A0144B0068049059685A
:101B6000134801F00C02042A10D0082A0ED1C1F348
:101B70008342C9031DF802000AD5596804AAC1F3BB
:101B80004041515C0A4A5043B0FBF1F005B0704748
:101B900008494843FAE7000002030405060708095C
:101BA0000A0B0C0D0E0F1010010200000010024075
:101BB00000127A0000093D002DE9F84F04006FD0B3
:101BC0002078BE4DC00747D06868C0F38100012867
:101BD00007D06868C0F38100022809D16868C00393
:101BE00006D52868800337D560680028E7D033E041
:101BF0006068B0F5803F0BD010B1B0F5A02F11D0C8
:101C0000286820F480302860286820F4802002E0D2
:101C1000286840F480302860606888B1FFF754FD80
:101C2000064609E0286840F480202860F0E7FFF7C6
:101C30004BFD801B642873D828688003F7D50BE020
:101C4000FFF742FD064604E0FFF73EFD801B6428D7
:101C5000F1D828688003F7D42078DFF86482800701
:101C60004FF0010A4FF0000939D5686810F00C0FE9
:101C700007D06868C0F38100022809D16868C003F2
:101C800006D42868800714D52069012808D110E0FF
:101C90002069B0B1C8F800A0FFF716FD064605E0C0
:101CA00007E1FFF711FD801B0228C4D828688007D0
:101CB000F7D52868616920F0F80040EAC100286083
:101CC0000DE0C8F80090FFF7FFFC064604E0FFF7C0
:101CD000FBFC801B022823D828688007F7D42078D3
:101CE00000072CD57748A169D9B1C0F800A0FFF74B
:101CF000EBFC064604E0FFF7E7FC801B02280FD848
:101D0000686A8007F7D570484FF4FA510068B0FB55
:101D1000F1F0009000BF0098411E0091FAD20EE051
:101D20007CE0C0F80090FFF7CFFC064604E0FFF728
:101D3000CBFC801B022871D8686A8007F7D4207812
:101D400040075BD5E8690027C00008D4E86940F087
:101D50008050E861E869012700F0805000905B48FE
:101D60000168C90511D40168834641F4807101609E
:101D7000FFF7AAFC064604E0FFF7A6FC801B6428D8
:101D80004CD8DBF80000C005F6D5E06801280AD081
:101D900008B1052813D0286A20F001002862286ABB
:101DA00020F0040002E0286A40F001002862E068A8
:101DB00041F2883B88B1FFF787FC064609E0286AB4
:101DC00040F004002862EEE7FFF77EFC811B5945D6
:101DD0005BD8286A8007F7D50BE0FFF775FC06464D
:101DE00004E0FFF771FC811B59454ED8286A800733
:101DF000F7D41FB1E86920F08050E861E069A8B32A
:101E00006968C1F38101022946D00228484606D0FC
:101E1000C8F86000FFF758FC044639E035E0474653
:101E2000C8F86000FFF750FC064604E0FFF74CFCE2
:101E3000801B022829D828688001F7D4206AB0F5D1
:101E4000803F05D16868A16820F4003008436860CD
:101E5000D4E908010843696821F4741108436860F3
:101E6000C7F860A0FFF730FC044605E023E0FFF769
:101E70002BFC001B022808D828688001F7D51AE03F
:101E8000FFF722FC001B022802D90320BDE8F88FCF
:101E900028688001F4D40EE00128F7D06868226A2F
:101EA00000F48031914204D1616A00F470108842DC
:101EB00001D00120EAE70020E8E70000001002401E
:101EC000000042428004424228000020007000408E
:101ED00010B5401EB0F1807F01D3012010BD4FF03E
:101EE000E02460610F21601702F0ACFA0020A061CD
:101EF00007202061002010BD7047704710B590F892
:101F00003C20012A22D0012280F83C20CA688C683B
:101F100022F4407222434C6822F4806222430C680F
:101F200022F4006222430C6922F4805222434C695D
:101F300022F400522243C969002322F480420A435A
:101F400001684A6480F83C30002010BD022010BDBA
:101F500070B590F83C20012A26D0012580F83C502D
:101F6000022280F83D2002685368946823F07006CE
:101F70000B68334353600D4B02689A4208D0B2F1AC
:101F8000804F05D00A4B9A4202D00A4B9A4204D1A4
:101F9000496824F080031943916080F83D50002186
:101FA00080F83C10084670BD022070BD002C014036
:101FB000000400400008004010B5040003D094F86D
:101FC0003D0010B107E0012010BD002084F83C0066
:101FD000204600F01FF8022084F83D00211D2068F3
:101FE00001F09EFE012084F8460084F83E0084F84B
:101FF0003F0084F8400084F8410084F8420084F8EF
:10200000430084F8440084F8450084F83D00002033
:1020100010BD000008B500680B49884212D10B487A
:10202000816941F4006181618069002200F40060EF
:10203000009003211920FFF7B3FBBDE808401920E9
:10204000FFF7A0BB08BD0000002C014000100240BB
:1020500090F83D10012901D001207047022180F83D
:102060003D100168CA6842F00102CA6000680B496D
:10207000884208D0B0F1804F05D00949884202D08B
:102080000849884204D1816801F00701062903D07C
:10209000016841F00101016000207047002C0140FF
:1020A000000400400008004070B5044690F83C0071
:1020B000012817D0012584F83C50022084F83D0007
:1020C0002068826822F0770222F47F4282600868EA
:1020D000502830D00DDC20284DD005DC98B31028D6
:1020E0003BD148E0022070BD302844D0402834D194
:1020F00039E0602828D0702806D0B0F5805F2CD059
:10210000B0F5005F29D10AE0CB68D1E90121206850
:1021100001F049FE2068816841F0770109E0CB6851
:10212000D1E90121206801F03EFE2068816841F478
:102130008041816011E0CA684968206801F0EEFEC4
:102140005021206807E016E0CA684968206801F05D
:10215000F6FE6021206801F030FE84F83D5000203A
:1021600084F83C0070BDCA684968206801F0D6FE5A
:1021700040212068EFE7226801461046EBE72DE991
:10218000F0410D46040003D094F83D0018B108E07A
:102190000120BDE8F081002084F83C00204600F0DA
:1021A00041F8022084F83D002068816844F207026B
:1021B00091438160211D206801F0B2FD2068816893
:1021C0008269066A2B68AF690B4340F203318A4388
:1021D00042EA0722A968EF6911434FF6FC42914396
:1021E000EA6841EA07210A4329692F6A090141EA9D
:1021F000073111436A686D6926F0220646EA051523
:102200002A4383602068816154F8460B02620120F2
:1022100004F81F09E0752076E0762077A07500208D
:10222000B7E7000000B585B000210091019102914F
:102230000391016823480122B1F1804F23D0224B42
:1022400099421ED1C16941F00401C161C16901F027
:1022500004010491816941F0080181618069694646
:1022600000F008000490C020009002921748FFF789
:1022700033F9002202211E20FFF792FA1E20FFF7F9
:1022800081FA05B000BDC16941F00101C161C169B8
:1022900001F001010491816941F0040181618069CB
:1022A000694600F004000490032000900292084860
:1022B000FFF712F9002202211C20FFF771FA1C20FF
:1022C000DDE700000010024000080040000C014063
:1022D0000008014070B590F83E50044690F83F3039
:1022E00090F8422090F84300022621B104290BD037
:1022F000012D16D10FE0012D13D1012A11D184F83F
:102300003E6084F8426016E0012B0AD1012808D112
:1023100084F83F600DE0012B03D1012A01D101288F
:1023200001D0012070BD84F83E6084F83F6084F8DD
:10233000426084F8436091B1042904D00122002155
:10234000206801F023FD01220421206801F01EFD18
:102350002068016841F001010160002070BD012288
:1023600000212068F2E7704770B5044600680169F3
:102370004FF00005C943890715D4C168C9438907CF
:1023800011D4E91E0161012020772068806980074F
:10239000204602D0FFF7E7FF04E000F0E3F8204614
:1023A00000F090F9257720680169C943490717D4DF
:1023B000C168C943490713D46FF0040101610220C9
:1023C00020772068806910F4407F204602D0FFF714
:1023D000CAFF04E000F0C6F8204600F073F9257744
:1023E00020680169C943090716D4C168C9430907B0
:1023F00012D46FF008010161042020772068C069C1
:102400008007204602D0FFF7AEFF04E000F0AAF8F4
:10241000204600F057F9257720680169C943C906AD
:1024200017D4C168C943C90613D46FF01001016104
:10243000082020772068C06910F4407F204602D031
:10244000FFF791FF04E000F08DF8204600F03AF924
:10245000257720680169C943C90708D1C168C94304
:10246000C90704D1891E0161204600F0B5F9206832
:102470000169C943090609D4C168C943090605D4DD
:102480006FF0800101612046FFF736FD2068016989
:10249000C943490609D4C168C943490605D46FF048
:1024A00040010161204600F049FB20680169C943F1
:1024B00089060BD4C168C943890607D46FF020018F
:1024C00001612046BDE87040FFF717BD70BD0000F8
:1024D00000B585B00021009101910291039100683F
:1024E0001A4B1B490222984212D1886940F004001D
:1024F00088618869694600F0040004904FF4106018
:10250000CDE9000213480392FEF7E6FF05B000BDD7
:10251000114B9842FAD1886940F0080088618869B7
:10252000694600F0080004902020CDE900020B4825
:102530000392FEF7D1FF0A49486820F4406040F05A
:10254000E06040F400604860E0E70000002C0140DB
:10255000001002400008014000040040000C01404F
:1025600000000140704770B5044690F83C000D46ED
:1025700001280AD0012084F83C0042B1042A18D076
:10258000082A2AD00C2A4DD139E0022070BD2068DB
:1025900001F01CFC2068816941F00801816120681C
:1025A000816921F004018161206881692A691143F0
:1025B00011E0206801F036FC2068816941F4006177
:1025C00081612068816921F480618161206881696D
:1025D0002A6941EA0221816124E0206801F050FC6F
:1025E0002068C16941F00801C1612068C16921F01A
:1025F0000401C1612068C1692A69114311E02068A2
:1026000001F06AFC2068C16941F40061C161206881
:10261000C16921F48061C1612068C1692A6941EA08
:102620000221C161002084F83C0070BD10B5040097
:1026300003D094F83D0010B107E0012010BD002048
:1026400084F83C00204600F01FF8022084F83D008A
:10265000211D206801F064FB012084F8460084F805
:102660003E0084F83F0084F8400084F8410084F87C
:10267000420084F8430084F8440084F8450084F85C
:102680003D00002010BD000008B500680B498842DD
:1026900012D10B48C16941F00201C161C069002239
:1026A00000F00200009001211D20FFF779F8BDE83D
:1026B00008401D20FFF766B808BD00000004004078
:1026C000001002407047000010B5044649B10429CB
:1026D0000AD008290BD094F8410001280AD0012023
:1026E00010BD94F83E00F8E794F83F00F5E794F841
:1026F0004000F2E7022041B3042929D008292AD05A
:1027000084F841000122206801F040FB1349206851
:10271000884203D1426C42F40042426420688842FD
:1027200008D0B0F1804F05D00D49884202D00D4944
:10273000884204D1816801F00701062903D00168AD
:1027400041F001010160002010BD84F83E00D9E78E
:1027500084F83F00D6E784F84000D3E7002C01401E
:10276000000400400008004030B504460D460068F3
:10277000002201F00BFB174A41F2111120688B1067
:10278000904209D1026A0A4206D1026A1A4203D172
:10279000426C22F4004242642068026A0A4206D176
:1027A000016A194203D1016821F001010160012091
:1027B0003DB1042D08D0082D09D084F84100002037
:1027C00030BD84F83E00FAE784F83F00F7E784F86C
:1027D0004000F4E7002C01402DE9F05FBD4988423C
:1027E0007ED1BD4E7089401C00B2052190FBF1F2F4
:1027F000708101FB120058B90024B84DFEF7CCF9E6
:1028000025F81400641CE4B2052CF7D3FEF7DAF9BE
:10281000B6F90A000A2190FBF1F201FB1200002830
:102820005ED1FEF79BF9AE480068FDF70BFFAD499E
:10283000FDF704FDAC49FDF733FDAC49FDF730FD74
:102840006FF00101FDF76AFDA94904460860A94837
:102850000068FDF7F7FEA349FDF7F0FCA249FDF77C
:102860001FFDA249FDF71CFD6FF00101FDF756FDAC
:10287000A149074608602046FDF717FFDFF87C8274
:10288000DFF87C9242464B46FDF7FBFDDFF874A271
:10289000DFF874B252465B46FDF7F3FD00229B4B16
:1028A000FDF7EFFD04460D46706AFDF7FEFE224679
:1028B0002B46FDF73FFDFDF70BFF70623846FDF735
:1028C000F4FE42464B46FDF7DCFD52465B46FDF703
:1028D000D8FD00228D4BFDF7D4FD04460D4600E0E7
:1028E000F5E0B06AFDF7E1FE22462B46FDF722FD3A
:1028F000FDF7EEFE0123B062854A1946022002F080
:10290000DBFB02210123834A084602F0D5FB7078E5
:10291000814FDFF80882824D00244FF00109012821
:1029200066D13946F06AFDF783FC716AFDF7ECFE6B
:1029300017D23946F06AFDF729FC716AFDF7EEFE01
:102940000FD2B078401CC0B2B070322808D3747077
:1029500086F80690B470B461F46102F013FA00E0F6
:10296000B4712878012843D101F0AAFC6D480068B1
:10297000FDF768FE30636C48007801280AD156489C
:1029800047464146183001F02CFE534839461C306A
:1029900001F027FE3078012814D0644F4E483946A4
:1029A000183001F01EFE4C4839461C3001F019FE6B
:1029B0005F49F06AFDF73CFC716AFDF7AFFE03D397
:1029C000F0690CE05B4FE9E7316BB0690F46FDF74A
:1029D0002FFCB0613946F069FDF7D8FBF061FDF7D7
:1029E0004BFE0746B069FDF747FE394600F01EFE74
:1029F0003079514F012824D12878012821D1F0784D
:102A0000401CF07001F0AEFAF078462805D334711E
:102A100086F8059002F0B6F9F4702F483946183060
:102A200001F0DFFD2C4839461C3001F0DAFDF06979
:102A3000FDF722FE8146B069FDF71EFE494600F013
:102A4000F5FDF07901281ED1287801281BD1F078F6
:102A5000401CF07001F086FAF078282803D3F47156
:102A600002F090F9F4701C484146183001F0B9FDAD
:102A7000194841461C3001F0B4FDB069FDF7FCFD7A
:102A8000002100F0D3FD307A01281FD128780128D9
:102A90001CD1F078401CF07001F064FAF07828281E
:102AA00003D3347202F06EF9F4700B4839461830D3
:102AB00001F097FD084839461C3001F092FDF0699D
:102AC000FDF7DAFD0146002000F0B0FD7481BDE89D
:102AD000F09F0000A801002030000020DE00002050
:102AE0006C000020000048420000604200003041BD
:102AF0000C00002070000020100000207B14AE4766
:102B0000E17A943F6F1283C0CA21094000001A4045
:102B100078000020740000200000C04100007042D6
:102B20002C000020A00000209D0000200000A042FA
:102B30000000A0400000B44200008C427047704783
:102B400070470000F8B5026804461068D168536900
:102B500010F00F0F4FF0000553D003F0010601F401
:102B6000907737435FD0C20705D0CA0503D5226CE2
:102B700042F001022264420705D5DA0703D0226C35
:102B800042F002022264820705D5DA0703D0226CE4
:102B900042F004022264020707D501F0200232430A
:102BA00003D0226C42F008022264226C002A34D046
:102BB000800604D5880602D5204601F05DFA20681B
:102BC0004069216CC0F38010090700D430B320465F
:102BD00001F03AFA2068416949061BD5416921F0A4
:102BE00040014161A06BA8B158494163A06BFEF759
:102BF000FBFB002811D0A06B416B01B0BDE8F04099
:102C0000084783060FD58B060DD52046BDE8F84052
:102C100001F032BA2046FFF793FFF8BD2046FFF7D8
:102C20008FFF2564F8BD266B2023012E52D1C606E6
:102C300050D5CE064ED510685068009050694006B9
:102C40002AD5A16B086840680004000CEAD0A68D64
:102C50008642E7D9E0858869202818D0D06820F41A
:102C60008070D0602068416921F0010141612068D5
:102C7000416921F04001416184F83E3025632068BC
:102C8000C16821F01001C160A06BFEF789FBA08D27
:102C9000E18D401A81B219E0A08DE18D401A81B218
:102CA000E08D0028BED00029BCD0D06820F4907000
:102CB000D0602068426922F00102426184F83E300F
:102CC00025632068C26822F01002C2602046FFF728
:102CD00036FFF8BD05062BD50D0629D594F83D0025
:102CE0002128F6D1A068B0F5805F01D12069B0B18C
:102CF000206A411C2162216800784860E08C401EF7
:102D00000004000CE084E4D12068C16821F0800157
:102D1000C1602068C16841F04001C160F8BD206A0F
:102D20000088C0F308005060206A801C2062E5E73C
:102D30004006F3D54806F1D5D168204621F0400180
:102D4000D16084F83D3000F095F9F8BD39400008B5
:102D500070B5040004D094F83D00002510B106E0E1
:102D6000012070BD84F83C50204600F023F8242058
:102D700084F83D002068C16821F40051C1602046FC
:102D800001F0D6F92068016921F4904101612068C1
:102D9000416921F02A0141612068C16841F4005174
:102DA000C1602564202084F83D0084F83E000020A6
:102DB00070BD0000F0B585B0002400940194029429
:102DC000039444490068424F02220323424D0E15EA
:102DD000B84225D1886940F480408861886900F450
:102DE00080400490886940F00400886188690393FA
:102DF00000F0040004904815CDE900026946284619
:102E0000FEF76AFBCDE90064694628460294FEF7A6
:102E100063FB002211462520FEF7C2FC252028E096
:102E20002E4FB84229D1C86940F40030C861C86942
:102E300000F400300490886940F0040088618869DB
:102E4000694600F0040004900420CDE900020393D9
:102E50002846FEF741FB0820CDE9000469462846D4
:102E60000294FEF739FB002211462620FEF798FC5B
:102E70002620FEF787FC05B0F0BD194DA842FAD117
:102E8000C86940F48020C861C86900F480200490BB
:102E9000886940F0080088618869124D00F00800D8
:102EA000CDE90330CDE9006269462846FEF714FB00
:102EB000E814CDE90004694628460294FEF70CFBAD
:102EC000002211462720FEF76BFC2720D1E70000E7
:102ED000003801400010024000080140004400405A
:102EE00000480040000C014090F83E30202B0ED1ED
:102EF00059B152B190F83C30012B08D0012380F831
:102F00003C300023036301F06FB9012070470220B9
:102F10007047000070B504462548264D844202D112
:102F2000687A00F02FFD2448844232D1A87A3128F3
:102F300001D100F04DFEA87A322801D100F026FE22
:102F4000A87A332802D1DB20FDF79AFDA87A34282D
:102F500002D15020FDF794FDA87A352802D1022035
:102F600000F0B0FDA87A362802D1012000F0AAFDB9
:102F7000A87A0121372804D0382804D0392805D070
:102F800007E00E4800E00E48017002E0002000F06B
:102F900099FD084901220A310748FFF7A5FFBDE85E
:102FA00070400449012209310148FFF79DBF00002C
:102FB0003802002084000020C00200209D00002074
:102FC000820000202DE9F843044690F83D001F469A
:102FD00015460E4620284BD1C6B1BDB194F83C0031
:102FE000012845D0012084F83C004FF00008C4F8C7
:102FF0004080212084F83D00FEF766FBA5848146D1
:10300000E584A068B0F5805F03D004E00120BDE84E
:10301000F883206920B13546002684F83C800EE014
:103020000025FAE78021204601F0F9F8A0B9ADB1FA
:1030300015F8010B21684860E08C401EE084E08CAC
:103040004B464FF0000200970028EBD14FF04001B3
:10305000204601F0E4F830B10320D8E736F8020B3F
:10306000C0F30800E6E7202084F83D000020CEE70A
:103070000220CCE77047FEE72DE9F04101220C4D1C
:10308000D40321462846FEF71AFB0122094F1603F6
:1030900031463846FEF713FB002231463846FEF72C
:1030A0000EFB21462846BDE8F0410022FEF707BB93
:1030B00000080140000C014070B50122D10309480D
:1030C000FEF7FDFA084D4FF48054002221462846B1
:1030D000FEF7F5FA21462846BDE870400122FEF7CA
:1030E000EEBA000000080140000C014070B501225A
:1030F000064DD40321462846FEF7E1FA214628462C
:10310000BDE870400022FEF7DABA00000008014076
:1031100003480178C278914201D1C17A4170704769
:103120008400002070B50B4D4FF480742146284672
:10313000FEF7B8FA21462846FEF7B4FA06490128F8
:1031400006D001200870BDE870401E20FEF798B937
:103150000020F7E7000C014008000020FEB5002425
:1031600028480094019426490294016089158160E1
:10317000047301250575052606614FF4602144603E
:10318000C0E90651FDF73AFF08B1FDF7E5FC0096EE
:10319000CDE9015469461B48FDF738FE08B1FDF73B
:1031A000DBFC06200225CDE9000569461548FDF740
:1031B0002DFE08B1FDF7D0FC072000900320CDE9DB
:1031C000010569460F48FDF721FE08B1FDF7C4FC73
:1031D000082000900420CDE9010469460948FDF764
:1031E00015FE08B1FDF7B8FC0920CDE900066946D7
:1031F0000448FDF70BFE002801D0FDF7ADFCFEBD35
:1032000000240140E80000202DE9F04F85B00024A3
:103210004D480094019402940394816941F0100197
:103220008161816901F010010491816941F02001FF
:103230008161816901F020010491816941F00401FB
:103240008161816901F004010491816941F0080103
:1032500081618069DFF8F48000F008004FF40055C8
:103260000490002229464046FEF729FA012217035E
:1032700039463748FEF723FA46F208090022494644
:103280003348FEF71CFADFF8CCB04FF4004A0122B5
:1032900051465846FEF713FA00950226012503967B
:1032A000CDE9015469464046FEF716F94FF0100883
:1032B0000320CDE9008069465846FEF70DF9CDE9B7
:1032C0000075CDE9025669462148FEF705F9CDF8AB
:1032D00000900396CDE9015469461D48FEF7FCF8BD
:1032E0001D480097CDE9010569465846FEF7F4F8F8
:1032F000CDE900A5CDE9025669465846FEF7ECF83F
:103300001648CDF80080CDE9010669461048FEF761
:10331000E3F828028DE8510069460D48FEF7DCF815
:10332000002204210A20FEF73BFA0A20FEF72AFABF
:10333000002211462820FEF733FA2820FEF722FA51
:1033400005B0BDE8F08F0000001002400010014001
:10335000000C014000080140000021100000111085
:1033600010B596B000240F941094119412941394F5
:103370001C2168461494FCF7FEFE202107A8FCF7E8
:10338000FAFE2C482A4901601F21C0E9011463217B
:10339000C0E903148021C0E90541FEF70DFE08B124
:1033A000FDF7DAFB4FF480500F900FA92148FEF78C
:1033B0007BFE08B1FDF7D0FB1E48FFF737F908B1D7
:1033C000FDF7CAFB139413A91A481494FEF7C0FD25
:1033D00008B1FDF7C1FB6020CDE90004029403941D
:1033E000049405940022694612480694FFF7BBF83E
:1033F00008B1FDF7B1FB0C2269460E48FFF7B3F8A0
:1034000008B1FDF7A9FB0794089409944FF4005004
:103410000A94CDE90B4007A906480E94FEF76EFD0D
:1034200008B1FDF799FB0348FFF752F816B010BD3D
:10343000002C01401801002010B58CB024216846F2
:10344000FCF799FE0024164809944FF080410A9435
:10345000C0E900144FF6FF71C0E9024104618461C4
:103460000320CDE900040120CDE9020406210491E6
:10347000CDE90540CDE9074169460948FEF77FFEE1
:1034800008B1FDF769FB099409A905480A94FEF7FC
:103490005FFD002801D0FDF75FFB0CB010BD000000
:1034A0006001002010B58AB0002407941C216846F2
:1034B0000894FCF760FE16481449016040F29F51E1
:1034C000C0E901146321C0E903148461FFF7AEF879
:1034D00008B1FDF741FB079407A90D480894FEF7D2
:1034E00037FD08B1FDF738FB6020CDE900040294F8
:1034F0000422694606480494FFF735F808B1FDF741
:103500002BFB0348FEF7E4FF0AB010BD00040040A7
:10351000A801002010B58CB024216846FCF72BFED2
:1035200000241648099414490A94C0E900144FF67F
:10353000FF71C0E90241046184610320CDE9000408
:103540000120CDE9020406210491CDE90540CDE931
:10355000074169460948FEF712FE08B1FDF7FCFA7B
:10356000099409A905480A94FEF7F2FC002801D045
:10357000FDF7F2FA0CB010BD00080040F001002089
:103580000C4810B50A4901604FF4E1314160002157
:1035900081600C22C160C0E904128161C161FFF742
:1035A000D7FB002803D0BDE81040FDF7D5BA10BD09
:1035B00000380140380200200C4810B50A4901606B
:1035C0004FF4E1314160002181600C22C160C0E90B
:1035D00004128161C161FFF7BBFB002803D0BDE885
:1035E0001040FDF7B9BA10BD004400407C02002035
:1035F0000C4810B50A4901604FF4E13141600021E7
:1036000081600C22C160C0E904128161C161FFF7D1
:103610009FFB002803D0BDE81040FDF79DBA10BD08
:1036200000480040C0020020FEE7000070B51A4EBE
:103630004542C1F1000401D5012200E00022082129
:103640003046FEF73CF84FF40051002C01DA01221D
:1036500000E000223046FEF732F810486FF06201B9
:10366000002D05DA8D4200DA0D466435026803E06C
:10367000632D00DD632502685563002C05DA8C425A
:1036800000DA0C460068643403E0632C00DD632438
:103690000068046470BD0000000C014018010020A7
:1036A000FEE770B50025002105F1B00000F0FDF83F
:1036B0000021084600F0F9F80021102000F0F5F88C
:1036C00000240121002000F0F0F8641CE4B2802CFA
:1036D000F7D36D1CEDB2082DE5D370BD10B54FF4D6
:1036E0004870FDF7CDFE0021AE2000F0DEF800218D
:1036F000084600F0DAF80021102000F0D6F800218A
:10370000402000F0D2F80021B02000F0CEF80021D7
:10371000812000F0CAF80021FF2000F0C6F8002147
:10372000A12000F0C2F80021A62000F0BEF8002180
:10373000A82000F0BAF800213F2000F0B6F80021E0
:10374000C82000F0B2F80021D32000F0AEF800212C
:10375000084600F0AAF80021D52000F0A6F80021C4
:10376000802000F0A2F80021D82000F09EF800216F
:10377000052000F09AF80021D92000F096F80021E9
:10378000F12000F092F80021DA2000F08EF80021FC
:10379000122000F08AF80021DB2000F086F80021DA
:1037A000302000F082F800218D2000F07EF800210A
:1037B000142000F07AF80021BDE81040AF2000F09E
:1037C00074B810B50A460446002102F1B00000F0BA
:1037D0006CF8102040EA1410002100F066F804F0A4
:1037E0000F00BDE81040002100F05FB82DE9F04166
:1037F000203A00240F468046D5B27F2803D9002006
:103800008F1C8046FFB2102B394610D0FFF7D9FF2E
:10381000164905EB450001EB40050121285D00F04C
:1038200044F8641CE4B2062CF7D3BDE8F081FFF73E
:10383000C8FF0F4E04EB05100121305C00F035F895
:10384000641CE4B2082CF5D37F1CF9B24046FFF7A4
:10385000B8FF002404EB051030440121007A00F089
:1038600024F8641CE4B2082CF4D3DEE74C510008C1
:10387000745300082DE9F041984617460E46044659
:1038800000250DE0434631462046FFF7AFFF0834E0
:10389000E4B2782C02D90024B61CF6B26D1CEDB24D
:1038A0007A5D002AEED1BDE8F081C0B209B100F026
:1038B0009EBD00F085BD00002DE9F0410446501A80
:1038C000FCF7C0FE17490546884201DD0D4603E0BE
:1038D0001548854200D90546A66801213046FCF707
:1038E0001DFD2946FCF7A7FCE168FCF74FFCE169E8
:1038F000FCF7A4FC07462946A069FCF79FFC80461C
:1039000031462846FCF794FC6169FCF797FC414678
:10391000FCF73CFC3946FCF739FCC4E90256BDE82B
:10392000F081000000007A4400007AC42DE9F041E3
:1039300004460068FCF77CFC0546A0602946206927
:10394000FCF724FC206107462846E168FCF770FC80
:10395000E169FCF773FC06463946A069FCF76EFC8A
:10396000074629466069FCF769FC3946FCF70EFCFE
:103970003146FCF70BFCE5606060BDE8F081704704
:1039800001607047F0B5274E0127314673790979F8
:1039900006F10C054A1CD2B2002433B1012B08D029
:1039A000022B18D0032B2AD005E02C2803D17771E5
:1039B0000DE0122809D074713471002025F81040F0
:1039C000401CC0B20628F9D3F0BD0223737125F85C
:1039D00011003271F0BD25F811003271052A01D2B3
:1039E0005B28F7D10320707105EB4200B77110F826
:1039F000061D31708178F1720079F071F0BD35F8F3
:103A000011005B2809D074713471002025F8104032
:103A1000401CC0B20628F9D3F0BDB4713471747182
:103A2000F0BD0000840000207047000015480178B8
:103A3000012905D0022906D00922032905D205E073
:103A40004FF0410201E04FF04202027281700929F9
:103A500016D2DFE801F0150507090B0D0F11130051
:103A600001210CE002210AE0032108E0042106E024
:103A7000052104E0062102E0072100E00821C170D1
:103A8000704700008400002070B50C4C4FF4805546
:103A900029462046FDF706FE00280ED1294620467D
:103AA000FDF700FE0028F9D005490878401CC0B297
:103AB0000870022801D90020087070BD000801407C
:103AC0000000002070B52649002201234A708A7147
:103AD0000B714A714A628A62224A23499C1E01285C
:103AE00003D078B102281ED030E01046FCF7F0FD7C
:103AF0001B4DFCF7DAFD1D4A1D4BFCF7C2FCFCF721
:103B0000E7FD1FE01046FCF7E3FD154DFCF7CDFD8A
:103B1000184A194BFCF7B5FCFCF7DAFD28610120C7
:103B2000C5E90D4012E01046FCF7D2FD0C4DFCF744
:103B3000BCFD124A124BFCF7A4FCFCF7C9FD0121A5
:103B4000FCF7ECFB28610120C5E90D040D490020BC
:103B500008600D490860BDE8704001F025B900001B
:103B600030000020AAD2327B184AE83FAE47E17A03
:103B700014AEEF3F7B14AE47E17AEC3F0AD7A37057
:103B80003D0AEF3F740000207800002070B50B4C18
:103B9000002501266570A5712672656208480949ED
:103BA000A562FCF795FD6663A66320610648056083
:103BB00006480560BDE8704001F0F6B8300000200E
:103BC00062ECD7A70335CC3F7400002078000020BA
:103BD00070B50B4C002501266570A571E671656214
:103BE00008480949A562FCF773FD6663A663206176
:103BF0000648056006480560BDE8704001F0D4B88D
:103C000030000020A129362D58F0D53F7400002047
:103C100078000020124810B50188491C01804188B5
:103C2000491C41800F490978012902D1C188491CEA
:103C3000C1800D490978012902D18188491C818000
:103C40000A480078012801D1FCF7EAFE084800780C
:103C5000012801D1FCF7B8FEBDE81040FDF73ABDE0
:103C600014000020980000209C0000209D000020EF
:103C70008200002030B593B028216846FCF77BFA1B
:103C800014210AA8FCF777FA002401210F9410945C
:103C90000804CDE9001011941294029402250491B5
:103CA000CDE907504FF4E01009906846FDF784FF16
:103CB00008B172B6FEE70F20CDE90A054FF4806027
:103CC000CDE90C4002210AA80E94FDF783FE08B14D
:103CD00072B6FEE74FF4004011900F950FA8FDF764
:103CE00005FE002801D072B6FEE713B030BD704764
:103CF0000148FEF739BB0000180100200148FEF71B
:103D000033BB0000600100200148FEF72DBB00001E
:103D1000A80100200148FEF727BB0000F0010020A9
:103D2000F0B50268164C174D174E4FF08047A04271
:103D300005D0B84203D0A84201D0B04203D122F04E
:103D400070034A681A43A04205D0B84203D0A84283
:103D500001D0B04203D122F44073CA681A434B69C0
:103D600022F080021A4302608A68C2620A68826294
:103D7000A04201D10969016301214161F0BD000048
:103D8000002C0140000400400008004010B501F084
:103D90001F010123046A8B409C430462036A8A402A
:103DA0001343036210BD10B5846842EA032224F471
:103DB0007F440A432243826010BD826822F0700271
:103DC0000A4342F0070181607047000030B5026A83
:103DD00022F001020262036A4268846924F07305DA
:103DE0000C682C4323F002058B682B430C4DA84232
:103DF00006D123F00805CB6843EA050323F004034A
:103E000007D14D6922F4407245EA02058A6942EA07
:103E100005024260846149684163036230BD00006D
:103E2000002C014030B5026A22F010020262026AE0
:103E3000436884690D6824F4E64444EA05248D68E7
:103E400022F0200242EA05120C4DA84206D1CD68AC
:103E500022F0800242EA051222F0400207D14D69A9
:103E600023F4406343EA85038D6943EA8503436095
:103E7000846149688163026230BD0000002C01400A
:103E800030B5026A22F480720262036A4268C46931
:103E900023F4007324F073050C682C438D6843EA07
:103EA00005230C4DA84206D1CD6823F4006343EAF4
:103EB000052323F4806307D14D6922F4405242EA7E
:103EC00005128D6942EA05124260C4614968C16306
:103ED000036230BD002C014030B5026A22F48052EA
:103EE0000262036A4268C4690D6824F4E64444EA45
:103EF00005248D6823F4005343EA0533064DA84298
:103F000004D14D6922F4804242EA85124260C461C4
:103F100049680164036230BD002C014010B5046A99
:103F2000036A23F001030362836923F0F00343EA89
:103F3000021324F00A020A438361026210BD10B525
:103F4000036A23F0100303628469036A24F4704453
:103F500044EA023223F0A00343EA011182610162C4
:103F600010BD000010B52B4C294A38212069FCF700
:103F7000BFFDFCF781FBE060142338220B21606950
:103F8000FCF7C9FDFCF778FB2062E168606B4843F1
:103F9000FCF758FB01462048FFF7F2FCE168A06BF4
:103FA0004843FCF74FFB01461C48FFF7E9FC1C485F
:103FB0000068FCF747FB01461748FFF7B7FCA06114
:103FC00018480068C838FCF73DFB01461348FFF766
:103FD000ADFCE0611448A169FFF7D2FC1348E16928
:103FE000FFF7CEFCA069FCF747FB024610480168CA
:103FF0000D48FFF761FCA061E069FCF73DFB02465C
:104000000C4801680948FFF757FCE06110BD00004B
:1040100000003041300000204403002064030020F1
:1040200074000020780000200403002024030020F6
:104030006C0000207000002010B5406A0021C1858E
:10404000C184FEF77DFD10BD0168CA6822F490723C
:10405000CA6001684A6922F001024A61016B0129C4
:1040600004D10168CA6822F01002CA60202180F8D9
:104070003E1000210163704708B590F83E102229D8
:1040800001D0022008BD81684FF48053994201D1CC
:10409000026922B1826A99421BD049B10AE00268E2
:1040A000816A5268C2F308020A80816A891C08E0AA
:1040B000016971B10168496801F07F011170816A7D
:1040C000491C8162C18D491E0904090CC18503D0B8
:1040D00019E001684968F1E70168CA6822F0200226
:1040E000CA600168CA6822F48072CA6001684A69BD
:1040F00022F001024A61202180F83E10016B012963
:1041000003D0FEF707FF002008BD0021016301680E
:10411000CA6822F01002CA6001680A68D20602D595
:104120000A6849680091818DFEF709FDEBE7000000
:1041300070B5044600680169E26821F440511143FA
:104140000161A16820690143606901432068C26878
:1041500041F20C639A430A43C26020684169A26934
:1041600021F44071114341611E492068884202D107
:10417000FDF7DCFC01E0FDF7C9FC00EBC00101EB41
:104180000011606864228000B1FBF0F3B3FBF2F32E
:104190006FF018067343B1FBF0F5B1FBF0F605EBD9
:1041A0008305322303EB0515B5FBF2F5B6FBF2F6FA
:1041B00005F0F00505EB0615B1FBF0F6B1FBF0F0EC
:1041C000B0FBF2F06FF01801484306EB800003EB00
:1041D0000010B0FBF2F0216800F00F002844886066
:1041E00070BD00000038014081628285C2850021D7
:1041F0000164222280F83E2080F83C100168CA68E1
:1042000042F48072CA6001684A6942F001024A6160
:104210000068C16841F02001C160002070472DE9AD
:10422000F0411E46174688460446069D1CE0681C61
:104230001AD025B1FDF748FA801BA84214D920688E
:10424000C16821F4D071C1602068416921F0010189
:104250004161202084F83D0084F83E00002084F86D
:104260003C000320BDE8F0812068016838EA0100C5
:1042700004D00020B842DAD00020F3E70120F9E7AB
:104280000148FEF75FBC000038020020074808B56F
:10429000006840688DF800000121684600F096FD36
:1042A00000F0A8FE0148FEF74DFC08BD7C0200208E
:1042B0000148FEF747BC0000C0020020FEE70000F6
:1042C00010B51F4C1D4A38212069FCF711FCFCF782
:1042D000D3F9E060142338220B216069FCF71BFC42
:1042E000FCF7CAF92062E068FCF7ACF90146154812
:1042F000FFF746FBE068FCF7A5F901461248FFF717
:104300003FFB12480068FCF79DF901460D48FFF796
:104310000DFBA0610E480068FCF794F901460A48BD
:10432000FFF704FBE0610B48A169FFF729FBE16996
:10433000BDE810400848FFF723BB000000003041F3
:104340003000002044030020640300206C000020A3
:104350007800002004030020240300202DE9F0470A
:10436000154F04464FF40046002231463846FDF70B
:10437000A6F9DFF8489000254FF4805804F080003B
:10438000802816D0002241464846FDF798F960067D
:10439000040E012231463846FDF791F900223146DC
:1043A0003846FDF78CF96D1CEDB2082DE6D3BDE85B
:1043B000F0870122E7E7000000080140000C0140FF
:1043C00010B50446FEF758FE7820FFF7C7FFFEF74A
:1043D0008DFE0020FFF7C2FFFEF788FE2046FFF7A4
:1043E000BDFFFEF783FEBDE81040FEF765BE10B5C9
:1043F0000446FEF741FE7820FFF7B0FFFEF776FE99
:104400004020FFF7ABFFFEF771FE2046FFF7A6FF47
:10441000FEF76CFEBDE81040FEF74EBE0FB4084B31
:1044200010B504A902AA039800F02CF8044602A9CA
:10443000002000F0D1F8204610BC5DF814FB00000D
:10444000D94500080907090E002804DB00F1E02027
:1044500080F80014704700F00F0000F1E02080F8B1
:10446000141D704702E008C8121F08C1002AFAD1C3
:1044700070477047002001E001C1121F002AFBD1E4
:10448000704700002DE9FF4F89B09B460446002588
:1044900006E025280BD05A460B999047641C6D1CEA
:1044A00020780028F5D10DB02846BDE8F08F002710
:1044B000B8460122474900E0074314F8013F203B7A
:1044C00002FA03F00842F7D120782E2819D114F807
:1044D000010F47F004072A280ED06FF02F02207832
:1044E000A0F1300109290CD808EB880102EB410149
:1044F00000EB0108641CF2E70A98641C50F8048B76
:104500000A9020780028CED0642808D0692806D0E8
:1045100075281ED05A460B9990476D1C58E00A9991
:104520004FF00A0901C90A91002802DA40422D2100
:1045300002E0390504D52B218DF82010012103E07C
:10454000F90704D02021F7E78A4608AE0DE00021E4
:10455000FAE70A994FF00A0901C90A91F7E74946B3
:10456000FCF7E6F8303106F8011D0028F7D1ADEB75
:10457000060000F12009780701D44FF00108C84572
:1045800002DDA8EB090000E000208046002706E0DD
:1045900008A85A46C05D0B9990476D1C7F1C574573
:1045A000F6DB04E030205A460B9990476D1CB8F1B9
:1045B0000001A8F10108F5DC05E016F8010B5A46E8
:1045C0000B9990476D1CB9F10001A9F10109F4DCC8
:1045D000641C65E7092801000A68531C0B60107011
:1045E000704770B504460E4681F000450068FCF740
:1045F00095F800D2266028462168FCF78FF800D293
:10460000256070BD03E011F8013B1844C0B2521E92
:10461000D2B2F8D2704700000EB5FDF763F8FFF78D
:1046200029FBFEF7F1FDFEF7ABFFFEF799FEFEF763
:1046300003FFFEF76FFFFEF7DBFFFEF733FFFEF72A
:10464000BBFFFEF78BFDFFF749F8FFF72AF80021C3
:10465000ED48FEF739F80C21EB48FEF735F8042158
:10466000EA48FEF731F83C21E948FDF733FE3C21EA
:10467000E848FDF72FFEE648FDF7EAFCE348FDF7C2
:10468000E7FCE448FDF7E4FCDF48FDF7E1FCE24825
:104690000068C16841F02001C160E0480068C1685D
:1046A00041F02001C1600122DD49DE48FEF71CFC1B
:1046B0000122DD49D848FEF717FC00F08FFC0023EB
:1046C0001A460121052000F0F7FC01225103D748CA
:1046D000FCF7F5FFD648FCF72BFB3C210846FEF71C
:1046E000A5FFDFF850B3D44DD44E4FF4FA7901272B
:1046F000D34C2088642803D3FFF7C6F9002020801C
:10470000D04C2088484503D3FEF70CFD00202080C4
:10471000CD4C2078012801D1FFF788F9CB48CCA1F6
:104720000278CE48FFF77AFE0C23CC4A0321002002
:10473000FFF7A0F8CA48CBA10268C848FFF76EFE91
:104740000C23C64A04210020FFF794F8A0462278E3
:10475000C7A1C248FFF762FE00210C23BF4A0846EA
:10476000FFF788F8C4A1BD48D8F80420FFF756FE2B
:104770000C23BA4A02210020FFF77CF8C148817857
:104780000379C2788DE80E0043780278BEA1B34861
:10479000FFF744FE0C23B14A01210020FFF76AF81D
:1047A000BD48BFA10378BD480278AC48FFF736FE8C
:1047B0000C23AA4A07210020FFF75CF8A74CBCA1F4
:1047C0003234208800906388A288A448FFF726FE30
:1047D0000C23A24A06210020FFF74CF8E388228927
:1047E000B6A19E48FFF71AFE0C239C4A0521002023
:1047F000FFF740F898F8000002287FF479AFB1483D
:104800000078422817D041284AD00928F5D198F8D5
:10481000010044461828BFF46BAFDFE800F05E608B
:104820008AC2F2F1F0EFEEEDECEBEAE9E8E7E6E55B
:10483000E9E4E3E2E1E098F8010044460828EAD21E
:10484000DFE800F004083D0E1719232988F80170ED
:104850004E2086E22878FCE1012019E02A2005E2BA
:1048600028780128C9D1410300227048FCF727FFAE
:1048700008E0A06820B130780128BED12C20F5E1F5
:10488000022005E06078401C89E0287810E20020D2
:10489000FFF718F9F6E730780128AED13E2060E244
:1048A00098F8010044460828B5D2DFE800F0070672
:1048B0000805AB0C0411CDE7D2E7E6E7C6E7307890
:1048C00001289AD1CAE73078012896D12D20CDE170
:1048D0003078012891D13C2043E28020C6E128783D
:1048E00001288AD1DFF8E0A18BF80070D846BAF829
:1048F000000048451BD8FEF70BFC744800780128DF
:104900000CD00228AED12520FCF7BAF8002088F898
:1049100000006760AAF800000B2040E02520FCF7AB
:10492000AFF8002088F80000411E6160F2E75720D0
:1049300037E12878012895D1DFF88C818BF8007059
:10494000DA46B8F8000048450CD8FEF7E1FB5F48AE
:10495000007801280ED0022817D0B8F8000048458A
:104960007FF6C6AEFFF734F900208AF80000A8F8F9
:10497000000087E72520FCF783F800208AF8000074
:10498000A8F80000401E606008E02520FCF778F8D9
:1049900000208AF80000A8F8000067600520607019
:1049A000A6E64B4800780028FAD1DFF81CA18BF866
:1049B0000070D846BAF80000484524D8FEF7A8FB96
:1049C00042480078012801D00228E9D1FFF7DEF83B
:1049D0006760002088F80000AAF8000052E7B6E1FE
:1049E000A8E195E187E180E176E164E153E147E107
:1049F0003FE131E111E10DE1F6E0D5E091E07BE04E
:104A000077E06DE038E165E018010020A8010020A2
:104A100060010020F0010020380200207C0200200C
:104A20008E000020C00200208D00002000100140F8
:104A3000E80000209800002036000020350000200B
:104A40001400002016000020000000209C00002020
:104A500067726179666C61673A256400AC0000207A
:104A60006C000020656E636F6465723A2564000017
:104A70005461736B3A25640063617365666C6167AA
:104A80003A256400A40000202564202564202564C4
:104A90002025642025640000870000208400002079
:104AA0006E756D3A256420544E756D3A256400008C
:104AB000256420256420256400000000256420254D
:104AC000640000008C0000201A00002085000020F7
:104AD00037000020FFF75AF84FF0FF30606078E7AA
:104AE000A248007800287FF45BAF1E20FBF7C8FFC8
:104AF00054E7287801280CD030780128F3D1606879
:104B0000401C0CD02F20FBF7BBFF994900200870F8
:104B1000B8E6606801283FF49FAE401C77E0322081
:104B2000F1E728780128DED1D8468BF80070FEF72F
:104B3000EFFADFF840A2BAF8000048450CD88C48DC
:104B40000078012801D00228CDD16068012801D069
:104B5000252026E0262024E06068411C05D001289D
:104B6000BDD18349087880B11AE08149087850B9ED
:104B700081480078012802D0022803D003E00220F7
:104B8000087000E00F7024200BE07B4800780128BB
:104B900002D0022803D003E00220087000E00F706A
:104BA0002720FBF76DFF14E771480078012808D033
:104BB00002280BD0012896D16068012893D10320E8
:104BC0000DE06068401CF7D1801E08E06068411C61
:104BD00003D0012887D1022001E06FF0020060605D
:104BE000092088F8010083E528780128FBD1606856
:104BF000022801D0C01C05D10120FEF763FF6078B8
:104C0000401C6070606803283FF441AE801C00289F
:104C1000E9D13CE63078012806D028780128E2D195
:104C20006068401C0ED013E06068022806D0C01CEB
:104C300006D02B20FBF724FF1220B0E62920F9E74D
:104C40002A20F7E70020FEF73DFF6078401C6070E7
:104C500060680128C7D1FFE530780128C3D16068BA
:104C6000012802D0401CBED1F8E52920FBF708FF3F
:104C700008E628780128B6D1A0680028B3D1FFE55E
:104C800030780128AFD16068012802D0401CAAD139
:104C90001CE62B20EAE728780128A4D16068401C94
:104CA00005D10120FEF70EFF6078401C607060683F
:104CB000012898D1EBE53078012894D16068401C38
:104CC00005D19420FBF7DCFE6078401C60706068C2
:104CD000012888D19720C9E72878012886D1410387
:104CE00001222648FCF7EBFC02E530780128FBD1D5
:104CF0006068C11CEAE528780128F5D16068811C4C
:104D0000A9D00328A7D0C11CD4D00228ECD1BEE57D
:104D100030780128E8D16068022805D0032805D042
:104D2000801C05D05820A1E759209FE755209DE71A
:104D300053209BE728780128D6D16068811C8AD04F
:104D4000C11C88D00228B5D00328CDD19FE530788A
:104D50000128C9D10A480770D8F80400801C03D084
:104D6000ED20FBF78DFEC3E4EC20FAE738000020CD
:104D7000850000201A0000208F0000200010014054
:104D800030000020064910B5002008700146054893
:104D9000FDF7EAFCBDE810400C210248FDF7E4BC39
:104DA0002C00002018010020064910B501200870D1
:104DB00000210548FDF788FCBDE810400C210248A1
:104DC000FDF782BC2C000020180100202DE9F041E5
:104DD000DFF84C80064640460C46B8F80610C388FB
:104DE00000680A19D8F800701844802A0AD9C1F15D
:104DF00080018DB22A463146FBF7A4F9621B711976
:104E0000384601E022463146FBF79CF998F8061037
:104E1000214401F07F01A8F80610BDE8F0810000F0
:104E2000900300202DE9F34F81B06A4D00200090DF
:104E30004FF0FF0AEB88AA882889802100F02EF91C
:104E400084B2092C6ED36889A94690BBB9F8046076
:104E500080210020B346DFF880E1E71ED9F800206A
:104E60002AE03318B3FBF1F501FB153512F805C044
:104E70005D1CB5FBF1F801FB1855555D4CEA052C9E
:104E80009D1CB5FBF1F801FB1855DB1CB3FBF1F8D9
:104E900001FB1833555DD35C2D0445EA03634CEAEE
:104EA000030CF44506D13044B0FBF1F201FB1200D3
:104EB00006E017E0401C80B2B842D2DB4FF0FF3072
:104EC00000B2002813DB0122A9F80A2082B2A9F857
:104ED0000420B9F80630B9F80800802100F0DEF8A7
:104EE00009281FDBB9F808004D4660B11DE0E41E3B
:104EF0000BEB0400C21700EB526222F07F02801A13
:104F0000A9F804000EE028792968421D801D02F0EE
:104F10007F0200F07F008A5C085C42EA0020288162
:104F2000A04202D95046BDE8FE8F82B2A88811186F
:104F3000491E8029296801440CDDC0F18000C2B2FD
:104F40000098FFF75FFB297A2A7911448139CAB2A8
:104F5000296802E0521ED2B20098FFF753FBA988DD
:104F60002A892E688C18631EDF1703EB576727F01A
:104F70007F07DB1B9B5D834227D1802C0DD9C1F1BC
:104F8000800084B2314422460198FBF7DBF828897F
:104F90002968021B0198204401E031440198FBF785
:104FA000D1F80298298901802879296800F109023D
:104FB00002F07F0211F802A0297A084400F07F0075
:104FC000A880002028816881ACE7491C01F07F009F
:104FD000F6E7000090030020535A48590448002186
:104FE000016141611830A0F10C0108600020704798
:104FF0008403002010B5A2B00020ADF88000441E4C
:1050000020A96846FFF70EFF1328F9D006DC102808
:105010000BD0112827D01228F2D003E0142831D069
:105020001528EDD022B0204610BD9DF80A00DDF80D
:105030000B10DDF80F2040EA01219DF80E00DDF88D
:10504000133040EA02229DF8120040EA03239DF843
:105050000400012805D00228D2D10C4800F066F8DF
:10506000CEE70B48FAE79DF80A00DDF80B1040EA9E
:105070000120FBF7E7FA07490860FBF7FDFA06494C
:105080000860BDE7FCF7BEFBBAE700004403002060
:10509000040300207C0000204000002010B50446DE
:1050A0009A4201D8981A01E0881A184480B28442C2
:1050B00000D9002010BD0000F8B50E4600211546AD
:1050C0008DF800109906164A0C0E1449116004F16F
:1050D0000B01C2F80510167150720A221049002007
:1050E000FFF790FA8DF8000022462946FFF78AFA6A
:1050F0000C4E8DF8000033460A2209490A48FDF794
:1051000061FF3346224629460748FDF75BFF3346D9
:10511000012269460448FDF755FFF8BD535A485926
:1051200084030020FFFF0F00C0020020143080E83D
:105130000E007047000000000000000001020304A0
:105140000607080900000000010203040000000037
:1051500000000000002F00000000070007000014FE
:105160007F147F1400242A7F2A120062640813230C
:1051700000364955225000000503000000001C22A3
:105180004100000041221C000014083E08140008E1
:10519000083E0808000000A0600000080808080891
:1051A000000060600000002010080402003E514929
:1051B000453E0000427F40000042615149460021C7
:1051C00041454B31001814127F10002745454539E1
:1051D000003C4A494930000171090503003649493C
:1051E000493600064949291E0000363600000000F5
:1051F0005636000000081422410000141414141440
:1052000000004122140800020151090600324959E8
:10521000513E007C1211127C007F49494936003E04
:1052200041414122007F4141221C007F49494941BF
:10523000007F09090901003E4149497A007F0808B9
:10524000087F0000417F4100002040413F01007F76
:1052500008142241007F40404040007F020C027F42
:10526000007F0408107F003E4141413E007F090954
:105270000906003E4151215E007F0919294600467A
:10528000494949310001017F0101003F4040403F51
:10529000001F2040201F003F4038403F006314089B
:1052A0001463000708700807006151494543000076
:1052B0007F41410000552A552A55000041417F0099
:1052C000000402010204004040404040000001028E
:1052D0000400002054545478007F48444438003877
:1052E0004444442000384444487F003854545418FF
:1052F00000087E0901020018A4A4A47C007F080411
:1053000004780000447D4000004080847D00007FE0
:10531000102844000000417F4000007C04180478FD
:10532000007C0804047800384444443800FC2424F9
:1053300024180018242418FC007C080404080048E1
:105340005454542000043F444020003C4040207C02
:10535000001C2040201C003C4030403C00442810F1
:105360002844001CA0A0A07C004464544C441414A5
:1053700014141414000000000000000000000000DD
:1053800000000000000000F80000000000000033F2
:105390003000000000100C06100C06000000000099
:1053A0000000000040C07840C0784000043F040482
:1053B0003F040400007088FC08300000001820FF43
:1053C000211E0000F008F000E018000000211C037E
:1053D0001E211E0000F00888700000001E212324FA
:1053E0001927211010160E00000000000000000018
:1053F00000000000000000E01804020000000007A8
:105400001820400000020418E000000000402018AE
:1054100007000000404080F0804040000202010F81
:1054200001020200000000F0000000000101011F65
:1054300001010100000000000000000080B07000C9
:105440000000000000000000000000000001010159
:1054500001010101000000000000000000303000E8
:1054600000000000000000008060180400601806C2
:105470000100000000E010080810E000000F1020FC
:1054800020100F00001010F8000000000020203F46
:1054900020200000007008080888700000302824D0
:1054A0002221300000300888884830000018202071
:1054B00020110E000000C02010F800000007042496
:1054C000243F240000F808888808080000192120DB
:1054D00020110E0000E0108888180000000F112035
:1054E00020110E0000380808C83808000000003FEE
:1054F000000000000070880808887000001C22214D
:1055000021221C0000E010080810E00000003122F9
:1055100022110F00000000C0C00000000000003099
:1055200030000000000000800000000000008060EB
:10553000000000000000804020100800000102046C
:105540000810200040404040404040000404040453
:10555000040404000008102040800000002010080F
:1055600004020100007048080808F0000000003044
:1055700036010000C030C828E810E00007182724D2
:1055800023140B000000C038E0000000203C230280
:105590000227382008F8888888700000203F2020E3
:1055A00020110E00C0300808080838000718202015
:1055B0002010080008F808080810E000203F20200C
:1055C00020100F0008F88888E8081000203F2020ED
:1055D0002320180008F88888E8081000203F2000E1
:1055E00003000000C0300808083800000718202019
:1055F000221E020008F808000008F808203F2101D8
:1056000001213F20000808F8080800000020203F82
:105610002020000000000808F8080800C0808080F2
:105620007F00000008F888C028180800203F2001EB
:105630002638200008F8080000000000203F202045
:105640002020300008F8F800F8F80800203F003F5C
:10565000003F200008F830C00008F808203F200074
:1056600007183F00E01008080810E0000F10202085
:1056700020100F0008F808080808F000203F21015A
:1056800001010000E01008080810E0000F182424B1
:1056900038504F0008F8888888887000203F200024
:1056A000030C3020007088080808380000382021DA
:1056B00021221C00180808F8080818000000203FE4
:1056C0002000000008F808000008F808001F20204B
:1056D00020201F000878880000C83808000007381C
:1056E0000E010000F80800F80008F800033C07006D
:1056F000073C0300081868808068180820302C03D5
:10570000032C30200838C800C83808000000203FAB
:105710002000000010080808C8380800203826219A
:1057200020201800000000FE020202000000007F9E
:1057300040404000000C30C00000000000000001AC
:105740000638C00000020202FE0000000040404097
:105750007F000000000004020202040000000000BC
:105760000000000000000000000000008080808039
:105770008080808000020204000000000000000021
:1057800000000000000080808080000000192422BA
:1057900022223F2008F8008080000000003F1120F6
:1057A00020110E000000008080800000000E1120FB
:1057B00020201100000000808088F800000E1120D9
:1057C00020103F200000808080800000001F2222E7
:1057D00022221300008080F0888888180020203F53
:1057E000202000000000808080808000006B949466
:1057F0009493600008F8008080800000203F210022
:1058000000203F2000809898000000000020203FEA
:1058100020200000000000809898000000C08080D8
:10582000807F000008F8000080808000203F240274
:105830002D302000000808F8000000000020203F64
:10584000202000008080808080808000203F200019
:105850003F20003F8080008080800000203F2100AA
:1058600000203F200000808080800000001F20205A
:1058700020201F00808000808000000080FFA12089
:1058800020110E000000008080808000000E11209A
:1058900020A0FF80808080008080800020203F2129
:1058A00020000100000080808080800000332424DC
:1058B00024241900008080E0808000000000001F88
:1058C000202000008080000000808000001F202039
:1058D00020103F20808080000080808000010E30FA
:1058E0000806010080800080008080800F300C035B
:1058F0000C300F0000808000808080000020312E5E
:105900000E312000808080000080808080818E7039
:105910001806010000808080808080000021302CEB
:105920002221300000000000807C02020000000004
:10593000003F404000000000FF00000000000000A9
:10594000FF0000000002027C800000000040403F99
:105950000000000000060101020204040000000033
:10596000000000008459000800000020AC00000086
:1059700064440008305A0008AC000020740B00009A
:105980007444000801000000000000000000000056
:105990000000000000000000000000000000000007
:1059A0000100000010000000000000000024F400CE
:1059B00000000000000000000000000000000000E7
:1059C00000000000000000000000000000000000D7
:1059D00000000000000000000000000000000000C7
:1059E00000000000000000000000000000000000B7
:1059F00000000000000000000000000000000000A7
:105A00000000000000000000000000000000000096
:105A10000000000000000000000000000000000086
:105A20000000000000000000000000000000000076
:04000005080000ED02
:00000001FF
